:020000040800F2
:10000000C00700206501000819100008C905000894
:1000100000000000000000000000000000000000E0
:10002000000000000000000000000000B113000804
:10003000000000000000000039120008B31300089F
:100040007701000800000000770100087701000830
:1000500077010008770100087701000877010008A0
:100060000000000077010008770100087701000810
:100070007701000877010008770100080000000000
:100080007701000800000000000000007701000870
:1000900000000000770100085114000877010008F3
:1000A0000000000077010008000000007701000850
:1000B00000F002F800F046F80CA030C80838241808
:1000C0002D18671EA246AB4654465D46AC4201D190
:1000D00000F038F87E460F3EB6460FCC012633427C
:1000E00000D0FB1A3343A246AB461847F028000065
:1000F00010290000103A02D378C878C1FAD8520704
:1001000001D330C830C101D504680C6070470000CD
:100110000023002400250026103A01D378C1FBD823
:10012000520700D330C100D50B60704710B5642969
:1001300002D100F077F810BD002010BD1FB51FBD23
:1001400010B510BD00F0FDF91146FFF7F7FF01F003
:10015000E7FA00F015FA03B4FFF7F2FF03BC00F072
:100160001BFA00000748804707480047FEE7FEE704
:10017000FEE7FEE7FEE7FEE704480549054A064BB1
:10018000704700004D140008B1000008C0020020B4
:10019000C0070020C0030020C00300200FB41CB51E
:1001A0000C0007AA009001D00019401E084B7B44A8
:1001B00069460190069800F090F9002C03D069463A
:1001C000002000F09DF91CBC08BC04B018470000DA
:1001D0005903000070B5044685690068C10601D561
:1001E000302600E02026C00707D070BD6268304688
:1001F000A1689047206A401C20626D1EF6D570BD34
:1002000070B5044685690078C00707D170BD626883
:10021000A16820209047206A401C20626D1EF6D500
:1002200070BD0000F7B5002575291068009914A667
:1002300011D0C046C046002802DA404211A608E0AC
:10024000009909688A0701D50FA602E0490704D57D
:100250000EA6012501E0C046C046009F00242437B9
:1002600004E000F05AF930313955641C0028F8D107
:100270002B4632462146009800F0D2F8FEBD000021
:10028000000000002D0000002B00000020000000F6
:10029000F3B50446002081B020622046E16888471B
:1002A00000287DD0252802D06268A16883E0454FF0
:1002B00000257F442046E16888472028064608DB61
:1002C000312E06D2B81920380078002801D0054315
:1002D000F0E7A80701D5042085430020E061074628
:1002E000A0612A2E0AD0304601F063FD002827D0F5
:1002F000B8000019303E0090866119E00298BA00FB
:10030000121902C8916102902046E1688847012FC6
:10031000064617D1E06900281FDA202085431CE03B
:1003200000980A2180694843009980193038886113
:100330002046E1688847064601F03BFD0028EFD1E2
:10034000012F0AD02E2E08D12046E16888470646A4
:10035000202005437F1C022FC3DBA069002803DA9D
:100360004042A06101200543E80701D010208543E9
:10037000002E24D030464138192803D80120C0026D
:1003800005432036204625603146029A1546FFF780
:10039000CDFE00280CD0012807D0ED1DE80800E0B4
:1003A0000DE0C0000830029077E72D1D029574E73C
:1003B00062683046A1689047206A401C6CE7206A5A
:1003C000FEBD00000A1B0000D2B210B513029A183D
:1003D00013049A1800F001F810BD01E004C0091FD1
:1003E0000429FBD28B0701D50280801CC90700D0ED
:1003F0000270704700290BD0C30702D00270401C66
:10040000491E022904D3830702D50280801C891E5D
:10041000E3E70022EEE70022DFE77047704770470E
:10042000FFB504460D4681B024300090216888064F
:1004300004D51022E0699143216000E00120A84228
:1004400001DD471B00E000270498A1697A19101804
:10045000081AA0612078C00602D42046FFF7BAFE31
:10046000002608E003986268A168805D9047206AD2
:10047000401C761C206204988642F3DB2078C0067C
:100480000AD52046FFF7A6FE06E06268A168302084
:100490009047206A401C206238467F1E0028F4DC0A
:1004A00007E000986268A168405D9047206A401CA0
:1004B000206228466D1E0028F3DC2046FFF7A0FED0
:1004C0002078000602D5022005B0F0BD0120FBE730
:1004D00001694A1C02610878704700B58FB002912B
:1004E0000021059105490193794403911146049037
:1004F0006846FFF7CDFE0FB000BD0000E5FFFFFF2F
:100500000A681070521C0A6070470CC908399A4278
:1005100002D2531C0B601070704701468008081A05
:1005200002091018020A1018020C1018C0088200E4
:1005300012185200891A01E0401C0A390A29FBD21C
:100540007047754600F024F8AE46050069465346EC
:10055000C008C000854618B020B5FFF70DFE60BC8E
:10056000B64600260027C0C5C0C5C0C5C0C5C0C5A9
:10057000C0C5C0C5C0C5403D490849008D4670474B
:1005800010B50446C046C0462046FFF7E4FD10BD46
:10059000004870471000002001491820ABBEFEE75C
:1005A000260002007047000005480188002902D09B
:1005B000491E018070470348012101707047C04601
:1005C00098020020A9020020FEE780B500F0ECF9B7
:1005D00080BD000081B013490A6802430A600968BF
:1005E00001400091009801B07047C04681B00120E1
:1005F00040040C490A6802430A60096801400091FE
:10060000009801B07047C04681B001204004054900
:100610000A6802430A60096801400091009801B02D
:100620007047C0461410024081B0012000071249F3
:100630000A6802430A60096801400091009801B00D
:100640007047C04681B0012040050B490A6802434B
:100650000A60096801400091009801B07047C046E7
:1006600081B005490A6802430A60096801400091A7
:10067000009801B07047C0461C10024081B00B4882
:100680000168012211430160006810400090009849
:1006900001B0704781B005490A6802430A600968E1
:1006A00001400091009801B07047C0461810024008
:1006B00005480168012008407047C04602480168AB
:1006C00001220A430260704700200240F0B581B069
:1006D0000D460446096800292DD0002709E06A6903
:1006E0002046314600F050F87F1C29680846F84043
:1006F00021D00126BE400E40F6D06A682046314621
:1007000000F054F86868401E012804D8AA68204602
:10071000314600F063F82A692046314600F055F86A
:1007200068680228E0D1FF2ED9D86A692046314690
:1007300000F020F8D8E76868401E012803D8EA686E
:10074000204600F03CF8002001B0F0BD03490968E4
:100750000140091A484248417047C04610140048F9
:100760000348202101607047014820210160704743
:1007700028000048494349434A430F234B43016A39
:100780009943114301627047090A494349434A4367
:100790000F234B43416A9943114341627047000064
:1007A00001482021016070471800004849434A432E
:1007B00003234B43016899431143016070474A4347
:1007C00043688B4313434360704749434A430323C1
:1007D0004B43C16899431143C160704749434A4341
:1007E00003234B4381689943114381607047012281
:1007F000D203436893430B43436070470248016848
:1008000020220A43026070471C54004010B51F2389
:100810001B0204689C4312020A432243026010BD7B
:100820000168012291430160704700000120C0046B
:1008300014490A6882430A607047C0460121C9030F
:1008400082688A43826070470120C00345490A6874
:1008500082430A607047C046016801220A43026071
:10086000704700000120400614490A6802430A60EC
:100870007047C0460120400402490A6882430A606A
:100880007047C046005400400121C90382680A43F2
:10089000826070470120800308490A6802430A60A9
:1008A0007047C04670B5054C2568054E2E400904BA
:1008B0000143114319433143216070BD045400408A
:1008C000008000FCB0B50D460446FFF7A9FFA968FB
:1008D000EA682046FFF79AFF6968204600F046F86C
:1008E0002046FFF7B9FF2046FFF7A8FFAA6929694C
:1008F000204600F027F82869002802D02046FFF79C
:10090000C3FF2968204600F015F869692046FFF703
:100910006EFF0020B0BD00000548016801200840BE
:100920007047C046024800688007C00F7047C04645
:100930001854004003221205036893430B430360DD
:100940007047000011438268024B13400B438360E1
:100950007047C04600F8FFFF02480168024A0A409B
:10096000026070470C54004001F8FFFF01617047BE
:10097000014908607047C046285400400C480149AE
:1009800001607047CCCC0000094801490160704704
:10099000555500000348006807210140484248417E
:1009A0007047C0460C300040014802490160704762
:1009B00000300040AAAA00000148052101607047EC
:1009C000043000400148024901607047083000408F
:1009D000FF0F000080B500F001F880BD80B57D21DB
:1009E000C90001F0EBF8401E034948600020886010
:1009F0000520086080BDC04610E000E03148016875
:100A00000C2008407047C0461E48016801220A4376
:100A1000026070471B4800688007C00F7047C046DF
:100A20001848016880220A4378218A43026070478F
:100A30000548016801220A430260704702480068C5
:100A40008007C00F7047C046241002403D200004BC
:100A50001C490A6882430520C00410180860886A8F
:100A60000F229043886270470120000605490A68FA
:100A700002430A607047C046024800688001C00F08
:100A80007047C046001002400E480168F0229143B2
:100A900001607047072000020A490A6882430A6021
:100AA0007047C046024801681022914301607047B8
:100AB000301002400348016802220A4301218A43A0
:100AC0000260704704100240014908607047C04648
:100AD000080000200248016801229143016070472C
:100AE00020200040026A0A43026270470121C94384
:100AF000016170470168802291430160704701687D
:100B00000122914301607047994801688022914316
:100B100001607047016801220A43026070470000CB
:100B20000248016801220A43026070470C480140F4
:100B3000416901220A434261704700000148006890
:100B40007047C0462404004010B5012805D0042891
:100B500005D0102805D1022004E0002002E0012089
:100B600000E006202E49095C03228A402D4B185CC8
:100B70002D4BC458944301228A402243C25010BDD9
:100B8000B0B5012805D0042805D0102805D10220D1
:100B900004E0002002E0012000E00620204A125C70
:100BA000F02393401F4C205C1F4C05599D43090CBA
:100BB000914029430151B0BD012805D0042805D03A
:100BC000102805D1022004E0002002E0012000E00E
:100BD000062004A1085C0A218140044802688A4377
:100BE0000260704700020406080A0C00200400405E
:100BF000012805D0042805D0102805D1022004E0E2
:100C0000002002E0012000E006200549095C0C22DA
:100C10008A400449085C0449435893434350704751
:100C2000D5290008CE2900081804004070B50D46EB
:100C3000044601681F4EB04202D0F648844204D1F7
:100C4000702081436868084300E008461A498C42D6
:100C500008DDB4420CD019498C4209D018498C42A5
:100C600006D024E0EB498C4202D0B9498C421ED117
:100C7000032109028843E96801432160A9682046ED
:100C800000F06AF82988204600F074F8B44205D0D4
:100C90000A48844202D00A48844203D1297C204673
:100CA00000F06AF82046FFF743FF002070BD0146C0
:100CB000E3E7C046002C0140FF2B01400048014003
:100CC000004401400169012008407047054801685F
:100CD00004229143016070470248016808220A43D8
:100CE0000260704718200040B0B503460120FF297C
:100CF00009DC012914D010291DD11846114600F035
:100D0000CBF90020B0BD01242502A9420ED0240356
:100D1000A14210D11846114600F050FA0020B0BD93
:100D20001846114600F07AF90020B0BD1846114669
:100D300000F0FAF90020B0BD014908607047C046D4
:100D4000342000404163704781637047C16370473E
:100D500001647047C1627047C16270474162704769
:100D60000348016801220A4306218A430260704752
:100D700008040040816270470163704702480168BF
:100D8000702291430160704704040040F0B587B0C1
:100D9000002606960596049603960296019601276C
:100DA000B805FFF717FC7804FFF714FCFFF7DCFC2D
:100DB0000597029601970D4801AC2146FFF786FC86
:100DC000059702960225019508482146FFF77EFC0B
:100DD0000595049603960297202001900920C006ED
:100DE0002146FFF773FC07B0F0BDC0460014004871
:100DF000F0B591B0002610960F960E960D960C96B3
:100E00000B960A96099608960796069605960496F6
:100E1000FFF7ECFB04200390099008960124079447
:100E2000032002900690022001900590670204972B
:100E30000920C006009004AD2946FFF747FC03983F
:100E40000990089607940298069001980590A002D0
:100E5000049000982946FFF739FCFFF7F3FBFFF7F2
:100E6000F3FCFFF7E3FCFFF705FD0C960B370B9740
:100E70000A960D960E960F96109605480AA9FFF74A
:100E800021FDFFF7EFFCFFF767FD11B0F0BDC04695
:100E90000054004080B5FFF771FDFFF775FDFFF7C7
:100EA0008BFDFFF78FFDFFF775FD0128FBD1FFF7E5
:100EB0007BFD80BDF0B593B0002712971197109776
:100EC0000F970E970D970C970B970A97099708970E
:100ED000079706970597049703970297019700973E
:100EE000012425022846FFF7BBFB0EA92F2008800E
:100EF0001197164810900F97154E3046FFF796FE43
:100F00003046FFF7F7FDFFF7E7FE0A97F33509953F
:100F1000089707976020069006AA30462146FFF7FB
:100F2000E3FEFFF7D3FEFFF76FFB042005900220DE
:100F30000490039702970190102000900920C006AA
:100F40006946FFF7C3FB13B0F0BDC046E7030000DE
:100F500000200040F0B58DB000260C960B960A9646
:100F600009960896079606960596049603960296A5
:100F700002252846FFF774FBFFF746FB0124079480
:100F80000695059604960395402002900920C00618
:100F9000019002AF3946FFF799FB07940695059635
:100FA000049603958020029001983946FFF78EFB46
:100FB000FFF7D6FE2046FFF7C7FD2046FFF718FED5
:100FC00021052046FFF7DCFD2046FFF7F5FD102543
:100FD0002846FFF7B9FD2846FFF70AFE61052846B7
:100FE000FFF7CEFD2846FFF7E7FD08A90E800B9618
:100FF00007480A900996074C2046FFF717FE20463F
:10100000FFF778FDFFF7BAFEFFF77EFD0DB0F0BDEC
:10101000FFFF000000040040FEE70000F0B583B0D1
:1010200004460126F043226A024022620A69024015
:10103000236A0327BB431343086802904D681D438E
:101040006368A2697948844205D07948844202D015
:101050007848844213D13802834370024E69019666
:101060008F69CE6987431F4373003B430C20854340
:1010700001984008C00028438D68AD0005436360B7
:101080007320824302980243A261C9682046FFF799
:1010900059FE256203B0F0BDF0B583B00446006A86
:1010A000102290432062206A302290430A6952083D
:1010B000520102430F684B681D0115436368A26922
:1010C0005A4EB44205D0EB4EB44202D0594EB4420F
:1010D00019D10326B602B343486902903E468F6990
:1010E000C8690190BF000F48384037461843019B3C
:1010F000DB000343C020854302984008C001284319
:101100008D68AD010543636073200002824338029D
:101110001043A061C9682046FFF716FE256203B0A0
:10112000F0BDC046FCF7FFFFF0B585B0044621488E
:10113000FF30226A02402262032003900002226AEA
:1011400082430869400843021343086804904A68D0
:1011500015021D436368E269344FBC4205D0C54F98
:10116000BC4202D0334FBC4217D103980703BB43A4
:101170004E6902968E69CF69019737010E4E3E4047
:101180001E43019B5B013343800285430298400864
:10119000C00228438D68AD0205436360732082431B
:1011A00004980243E261C9682046FFF7CFFD25623B
:1011B00005B0F0BD00FEFFFFF0DFFFFFF0B583B02C
:1011C000044601263003226A82432262256A63684C
:1011D00005C902928A680192E269144F0839BC423B
:1011E00005D0A44FBC4202D0F44FBC4205D1B60397
:1011F000B3438E69B6011E4300E01E46666073234A
:101200001B029A4300021043E061C9682046FFF7C1
:101210009FFD0320000385430198400840032843B5
:10122000029909030143216203B0F0BD002C014083
:1012300000480140004401407047000010B5832879
:1012400018D81F2916D853425341134C2478002C28
:1012500000D01A4607240C400123A340C908842467
:101260004C43201851490C5C012A01D09C4300E0FA
:101270001C430C5410BDC04680B5074909784A1E6E
:101280009141814201D1002200E0FF222120010191
:101290004648FFF799F880BD84000020294A118054
:1012A000274908807047C046F0B585B003462448FA
:1012B00000880C7824180020832C3ED8214C2588E7
:1012C0000F46497849191F2937D803920193787836
:1012D00000282CD003994B424B41049301992039AB
:1012E0000291002603E07878761C86421FD2397876
:1012F0000029F8D0029948438019400079680C5AB7
:1013000000250DE00E480088401980B20D4909887B
:10131000891989B2FFF792FF6D1C38788542E2D2B5
:101320002046A8400004049AECD5039AEAE73878EE
:10133000034A118808181080019805B0F0BDC04616
:101340008000002082000020F0B581B006460078C1
:10135000002700280FD014460D46C0B22946224669
:10136000FFF7A2FF01463078814205D1711C7078E9
:1013700000280E46F1D1384601B0F0BDB0B50B489B
:10138000041F002528465038C0B200F08BFB002017
:1013900000F088FB102000F085FB8421204600F03F
:1013A0008DFB84346D1C042DECD1B0BD8800002071
:1013B000704780B5FFF7F8F880BD0000FF200006F9
:1013C00006494A680240064BD2184A608A680240C1
:1013D0008A600868072202430A60704710E000E054
:1013E0007FBB000010B5FFF769F9FFF761F901282D
:1013F000FBD1FFF709FBFFF70DFB0128FBD1FFF73E
:101400000FFBFFF715FBFFF719FB0128FBD1FFF7D7
:101410001DFBFFF729FBFFF72FFB0128FBD1FFF78F
:1014200033FBFFF737FBFFF745FBFFF7E7FA082829
:10143000FBD1054C2046FFF7CDFA2046FFF744FBD1
:10144000FFF730FB10BDC046006CDC0270470000A7
:1014500010B5084C2046FFF735FC012808D120467E
:10146000FFF744FB2046FFF74AFB034801210170C8
:1014700010BDC04600480140A802002002490022D9
:101480000A70024908807047A902002098020020D3
:1014900001208005014908607047C04600E100E076
:1014A000FF20000603490A688243032080071018C2
:1014B0000860704720ED00E0FF20000402490A6840
:1014C00082430A607047C04614E400E010B5044649
:1014D0007D20C10220894843044900F06FFB01468A
:1014E0006060034800F06AFB208010BD70170000A8
:1014F00040420F0080B500F013FAC0B2002807D0B8
:10150000012809D1C1480078C00705D1012080BD5C
:10151000BE480078C00701D1022080BD002080BDF8
:1015200070B582B00C46054600200121FFF7B6FEDB
:101530002D89632D06D80F48102111A22B46FEF7E6
:101540002DFE0DE064262846314600F037FB0346A9
:101550004643A81B00900748102107A2FEF71EFE75
:10156000044801222146FFF7EFFEFFF707FF02B014
:1015700070BDC0467000002025642E253032640006
:10158000302E25303264000010B501460B4C204649
:10159000FFF7E0FB2046FFF7A9FA00212046FFF7FE
:1015A000DDFB2046FFF7B6FA2046FFF78BFB00284D
:1015B000FAD02046FFF7A3FA10BDC0460044014010
:1015C000B0B504464008FFF7B7FB164D2846214644
:1015D000FFF7C0FB00212846FFF7C0FBB0BDC046A7
:1015E000B0B505460F4C2046FFF789FA6808FFF7AB
:1015F000A3FB20462946FFF7ADFB00212046FFF75D
:10160000ADFB01212046FFF76DFA2046FFF782FA75
:10161000B0BDC04680B50348FFF771FAFFF75AFA2C
:1016200080BDC0460020004010B5044600F032F9ED
:1016300076490A78F9231340C007820F9A18430F9E
:10164000D2180A70002802D1FFF78AF801E0FFF7EC
:10165000A7F80A2020812046FFF738FFE1492046FD
:10166000FFF75EFF10BDC04610B5084C7F4920460D
:10167000FFF774FB01212046FFF734FA10212046C2
:10168000FFF730FA2046FFF745FA10BD000400408E
:10169000F0B581B01C4615460F46591C00261F4B5D
:1016A0003246FFF7FFF8FFF73DF90028FBD0384638
:1016B000FFF75EF9FFF730F90028FBD0002C09D0C6
:1016C000A85DFFF755F9FFF727F90028FBD0761C36
:1016D000A642F5D1FFF7DEF8FFF790F801B0F0BDB4
:1016E00070B514460D46511C00260C4B3246FFF7D0
:1016F000D9F8FFF711F90028FBD0002C09D0A85D1C
:10170000FFF736F9FFF708F90028FBD0761CA64250
:10171000F5D1FFF7BFF8FFF771F870BD002000802A
:10172000FEF7ACFFFEF780FFFFF7BAFEFFF75AFEA9
:10173000FFF72CFBFFF75CFBFFF70CFCFFF7BAFB96
:10174000FFF7A8FBFFF73AFE00F00AFA00F04CF9A9
:101750007D20C000FFF718FF054C2046FFF764FF0F
:10176000044D2846214600F007F8FEF72EFFF8E763
:10177000AC0200209C02002070B50D460646234CAA
:10178000204600F08FF801281BD121780420084062
:1017900029898908402904D8002807D1FEF7E0FFED
:1017A0000FE0002805D1FEF7DBFF04E0FEF7F8FFAD
:1017B00007E0FEF7F5FF2078C00702D0284600F0CA
:1017C000D7F93046294600F0FBF8012802D12888D5
:1017D000FFF7F6FEFFF78EFE002809D0012814D18E
:1017E00028898008402809D8284600F0DEF908E05A
:1017F00000F0E0F920780121884305E0284600F058
:10180000B7F9217801200843207070BDBB02002089
:10181000B0B50C460546FFF791F9401E80B213495A
:10182000081AC10F4018411069602A6800208A42D6
:1018300018D02960891A15D00A460932122A11D8FF
:101840000520484322891018208180B2092803D836
:101850000A2020810846B0BDE1229200904202D9C0
:1018600022810846B0BD0846B0BDC046FF7F0000DB
:1018700010B54100B94C2046FFF76CFA0021204614
:10188000FFF76CFA2046FFF731F92046FFF742F9DF
:1018900010BDC04680B50220FEF758FF41424841C6
:1018A00080BD0000F0B581B004461B4D28780028AB
:1018B00011D1FFF7EFFF2278FD23134001210840EB
:1018C00046009B1923705207D20F904203D0297013
:1018D0003220FFF7D3FD29780020012919D10F4EBE
:1018E0003178012915D1FFF7D5FF01462378FD2274
:1018F0001A40012001404F00D2195B07DB0F9942CB
:1019000003D0FB231A40890052182270002129704D
:10191000317001B0F0BDC046B8020020A90200201D
:1019200010B5204C2078002813D0207801281DD134
:101930001D480078012831D100F03AF8002824D061
:101940006420FFF795FF02202070184801210170E4
:1019500024E000F02DF8012804D10120207032206D
:10196000FFF786FF11480021017017E02078022858
:1019700014D10D480078012810D100F019F8002882
:1019800008D00A480121017008E0002020700749B2
:10199000087003E0002020700449087003480078B4
:1019A00010BDC046B9020020A8020020BA020020E3
:1019B00080B50120FEF7CAFE4142484180BD0000CB
:1019C00010B50C46FFF724FF002808D00549204633
:1019D000FFF7A6FD2046FFF779FD012010BD00208E
:1019E00010BDC0460000002010B5AE2000F05AF82F
:1019F000202000F057F80024204600F053F8B020D3
:101A000000F050F8C82000F04DF8204600F04AF8E9
:101A1000102000F047F8402000F044F8812000F04A
:101A200041F8FF2000F03EF8A12000F03BF8A6208E
:101A300000F038F8A82000F035F81F2000F032F848
:101A4000A42000F02FF8D32000F02CF8204600F05E
:101A500029F8D52000F026F8F02000F023F8D9204E
:101A600000F020F8222000F01DF8DA2000F01AF82B
:101A7000122000F017F8DB2000F014F8022000F02C
:101A800011F8AF2000F00EF82046FFF7F5FBFFF746
:101A900075FC024804800248048010BD82000020CA
:101AA0008000002080B5044948700020087078202C
:101AB0000222FFF715FE80BDBC02002080B5024661
:101AC000CBB278204021FFF7E3FD80BD10B586B092
:101AD000002405940494039402940194012040048A
:101AE000FEF7D8FD01A92F2008800494FF20039061
:101AF0000294044C2046FFF799F82046FEF7FAFFBF
:101B000006B010BD0044014010B586B00024059415
:101B1000049403940294019401208004FEF7BAFD1A
:101B200001A90C740B48088004940B48039002949C
:101B30000A4C2046FFF77AF82046FEF7DBFF2046E6
:101B4000FEF7D4FFFEF7ECFFFFF7B6FCFFF7A0FCB3
:101B500006B010BDBF5D0000FFFF0000004801405F
:101B600080B5FFF781FDFFF7B1FFFFF7CDFF80BD27
:101B700070B50446E8252846FFF732FD7D20C600F3
:101B80002088E7280AD83046FFF7FEFC281F85B2D8
:101B90002846FFF715FD20888542F4D83046FFF728
:101BA000F3FC2088FFF70CFD70BD80B50088FFF7BF
:101BB00017FD80BD80B5FFF72DFD80BD43088B422A
:101BC0001AD3002203098B4279D3030A8B425ED3D6
:101BD000030B8B4242D3030C8B4227D30902FF2213
:101BE00012BA030C8B4202D31212090203D0030B68
:101BF0008B4233D31AE0D3E0411A8041401C704736
:101C000003460B4371D443088B42F5D300220309EA
:101C10008B4254D3030A8B4239D3030B8B421DD31F
:101C2000030C8B4202D394466EE0090AC30B8B422D
:101C300001D3CB03C01A5241830B8B4201D38B03D8
:101C4000C01A5241430B8B4201D34B03C01A52417D
:101C5000030B8B4201D30B03C01A5241C30A8B42C0
:101C600001D3CB02C01A5241830A8B4201D38B02AB
:101C7000C01A5241430A8B4201D34B02C01A52414F
:101C8000030A8B4201D30B02C01A5241CDD2C309C1
:101C90008B4201D3CB01C01A524183098B4201D33D
:101CA0008B01C01A524143098B4201D34B01C01A28
:101CB000524103098B4201D30B01C01A5241C308A0
:101CC0008B4201D3CB00C01A524183088B4201D30F
:101CD0008B00C01A524143088B4201D34B00C01AFB
:101CE0005241411A524110007047CA0F00D0494278
:101CF000031000D34042534000229C4603098B420C
:101D00002DD3030A8B4212D38901FC2212BA030A93
:101D10008B420CD3890192118B4208D38901921115
:101D20008B4204D3890137D0921100E08909C3099D
:101D30008B4201D3CB01C01A524183098B4201D39C
:101D40008B01C01A524143098B4201D34B01C01A87
:101D5000524103098B4201D30B01C01A5241C308FF
:101D60008B4201D3CB00C01A524183088B4201D36E
:101D70008B00C01A5241D9D243088B4201D34B0089
:101D8000C01A5241411A00D20146524110466346E0
:101D90005B1000D34042704763465B1000D3404263
:101DA00001B50021004201D0C9430846C046C046E3
:101DB00002BD30380A2801D2012070470020704748
:101DC0000400000800000000000000020001000004
:101DD00010000000000000000000000000000000F3
:101DE00000000000000000000000000000000000F3
:101DF00000000000000000000000000000000000E3
:101E0000000000000000E003E003E003E003E00363
:101E1000E003E003E003C003C003C001C001C00150
:101E2000C001C001000000000000E003E003E00387
:101E3000000000000000000000003C1E3C1E3C1E94
:101E40003C1E3C1E3C1E3C1E00000000000000002A
:101E50000000000000000000000000000000000082
:101E60000000000000000000000000000000CE01A3
:101E7000CE03DE039E039C039C07FF3FFF7F3807D2
:101E8000380F780F780F780EFFFFFFFFF01EF01C61
:101E9000E01CE03CE03DE0390000000000000000F4
:101EA0000000FC03FE0FEE1FE01EE01EE01EE01E21
:101EB000E01FE00FE007F003FC01FE01FE01FE0160
:101EC000FE01FE01FE01FE3DFC3FF00FE001E001DE
:101ED000000000000000033E07F78FE78EE79EE357
:101EE000BCE3B8E7F8E7F0F7E03FC001FF03FF0706
:101EF000F307F30FF31EF33CF338F3787FF03FE082
:101F000000000000000000000000E007F80F780F5C
:101F1000781F781F781F780FF00FE00F801FC37FA6
:101F2000C3FBE7F3F7F1F7F0FFF07FF03EF87F7CBB
:101F3000FF3FEF1F00000000000000000000E00372
:101F4000E003E003C003C003C001C000C000000004
:101F50000000000000000000000000000000000081
:101F60000000000000000000000000000000000071
:101F700000003F007C00F001E001C003C0078007C3
:101F80008007800F000F000F000F000F000F000FE1
:101F9000800F80078007C007C003E001F0017C00CC
:101FA0003F000F000000007E001FC007C003E001DB
:101FB000F001F000F000F800780078007800780078
:101FC00078007800F800F000F000F001E001C003B4
:101FD000C007001F007E00780000C001E003180C5D
:101FE000180C180C180CE003C001000000000000E1
:101FF00000000000000000000000000000000000E1
:1020000000000000000000000000000000000000D0
:1020100000000000000000000000C001C001C0017D
:10202000C001C001C001C001FFFFFFFFC001C0012E
:10203000C001C001C001C00100000000000000009C
:102040000000000000000000000000000000000090
:102050000000000000000000000000000000000080
:1020600000000000E003E003E003E003E001E00122
:10207000E001C0018003000000000000000000003B
:10208000000000000000000000000000FE3FFE3FD6
:102090000000000000000000000000000000000040
:1020A0000000000000000000000000000000000030
:1020B0000000000000000000000000000000000020
:1020C000000000000000000000000000E003E0034A
:1020D000E003E003000000000000000000000F002B
:1020E0000F001E001E003C003C0078007800F0004D
:1020F000F000E001E001C003C00380078007000F8B
:10210000000F001E001E003C003C0078007800F02C
:102110000000F007F80F7C1F3E3E1E3C1F7C1F7C1A
:102120000F780F780F780F780F780F780F781F7C63
:102130001F7C1E3C3E3E7C1FF80FF0070000000095
:10214000000000000000F000F007F03FF03FF00159
:10215000F001F001F001F001F001F001F001F001F7
:10216000F001F001F001F001F001F001FF3FFF3F4D
:1021700000000000000000000000E00FF83F7C3C81
:102180003C003E003E003E003C003C007C00F8006D
:10219000F001E003C0078007000F001E003E003C76
:1021A000FE3FFE3F00000000000000000000F00FB6
:1021B000F81F7C1C3E003E003E003C003C00F80046
:1021C000F00FF80F7C003E001E001E001E001E00D7
:1021D0003E007C1CF81FE01F000000000000000013
:1021E00000007800F800F800F801F803F807F80795
:1021F000780F781E781E783C78787878FFFFFFFF9C
:1022000078007800780078007800780000000000FE
:10221000000000000000FC1FFC1FFC1F001E001E31
:10222000001E001E001EE01FF81FFC007C003E0088
:102230003E001E003E003E003C007C1CF81FE01FDC
:1022400000000000000000000000FC01FE078E0FEF
:10225000001F001E003E003C003CF83DFC3F3E7F5E
:102260001F7E0F3C0F3C0F3C0F3C0F3E1F1E3E1FBE
:10227000FC0FF00300000000000000000000FF3F22
:10228000FF3FFF3F0F001E001E003C00380078009B
:10229000F000F000E001E001C003C0038007800F00
:1022A000800F000F001F001F000000000000000052
:1022B0000000F807FC0F3E1F1E1E1E3E1E3E1E1E87
:1022C0003C1FF80FF007F80FFC1E3E3E1F3C1F7C22
:1022D0000F7C0F7C1F3C3E3FFC1FF00700000000FE
:1022E000000000000000F007F80F7C1E3E3C1E3C82
:1022F0001F7C1F7C1F7C1F7C1F3C3F3EFF1FEF0786
:102300001F001E001E003E003C00F838F03FE01F9A
:1023100000000000000000000000000000000000BD
:10232000000000000000E003E003E003E003000021
:10233000000000000000000000000000E003E003D7
:10234000E003E003000000000000000000000000C7
:1023500000000000000000000000E003E003E003D4
:10236000E00300000000000000000000000000008A
:10237000E003E003E003E003E001E001E001C0036B
:1023800080030000000000000000000000000300C7
:102390000F003F00FC00F003C00F003F00FE003FB5
:1023A000C00FF003FC003F000F000300000000001E
:1023B000000000000000000000000000000000001D
:1023C00000000000000000000000FFFFFFFF000011
:1023D00000000000FFFFFFFF000000000000000001
:1023E00000000000000000000000000000000000ED
:1023F00000000000000000E000F8007E801FE00701
:10240000F8017E001F007E00F801E007801F007EBB
:1024100000F800E000000000000000000000F01FD5
:10242000FC3F3E381F381F381E001E003C0078005D
:10243000F000E001C003C003C007C00700000000B7
:102440000000C007C007C007000000000000000037
:102450000000F803FE0F1E1F0F3E7F3CFF78EF7950
:10246000C773C7F38FF38FF38FF39FF39FF3FF735C
:10247000FF7BF779003C1C1FFC0FF80300000000F5
:10248000000000000000000000000000E003E00386
:10249000F007F007F007780F780F7C0E3C1E3C1E0B
:1024A0003E3CFE3FFF3F1F780F780FF007F007F02C
:1024B000000000000000000000000000000000001C
:1024C000F83FFC3F3E3C1E3C1E3C1E3C3E3C7C3CE0
:1024D000F03FF83F7E3C1F3C1F3C0F3C0F3C1F3C35
:1024E000FE3FF83F00000000000000000000000078
:1024F00000000000FF01FF07871F003E003C007C3A
:1025000000780078007800780078007C007C003E3D
:10251000003F831FFF07FF010000000000000000D4
:102520000000000000000000F07FFC7F7E781F7834
:102530001F780F780F780F780F780F780F780F7853
:102540000F781F781E787E78F87FE07F000000000B
:10255000000000000000000000000000FF3FFF3FFF
:10256000003E003E003E003E003E003EFE3FFE3F7D
:10257000003E003E003E003E003E003EFF3FFF3F6B
:10258000000000000000000000000000000000004B
:10259000FF1FFF1F001E001E001E001E001E001E4B
:1025A000FF1FFF1F001E001E001E001E001E001E3B
:1025B000001E001E000000000000000000000000DF
:1025C00000000000FE03FF0F871F003E007C007C20
:1025D000007800F800F87FF87FF80F780F7C0F7C08
:1025E0000F3E8F1FFF0FFE030000000000000000E1
:1025F00000000000000000001F7C1F7C1F7C1F7C6F
:102600001F7C1F7C1F7C1F7CFF7FFF7F1F7C1F7C2C
:102610001F7C1F7C1F7C1F7C1F7C1F7C0000000018
:10262000000000000000000000000000FF3FFF3F2E
:10263000E003E003E003E003E003E003E003E00382
:10264000E003E003E003E003E003E003FF3FFF3FBC
:10265000000000000000000000000000000000007A
:10266000FC1FFC1F7C007C007C007C007C007C004C
:102670007C007C007C007C007C0078007800F838CE
:10268000F03FC03F0000000000000000000000001C
:10269000000000001F3C1E3C3C3C783CF03CE03D10
:1026A000E03FC03F803FC03FE03FF03DF03C783C22
:1026B0007C3C3E3C1F3C0F3C000000000000000042
:1026C0000000000000000000003E003E003E003E12
:1026D000003E003E003E003E003E003E003E003E0A
:1026E000003E003E003E003EFF3FFF3F0000000076
:1026F0000000000000000000000000001FF81FFCA8
:102700001FFC3FFE3FFE3FFE7FFF77FF77FFF7F79F
:10271000E7F7E7F3E7F3C7F307F007F007F007F091
:1027200000000000000000000000000000000000A9
:102730000F7C0F7C0F7E0F7F0F7F8F7F8F7FCF7F70
:10274000EF7BEF79FF79FF78FF787F783F783F78EC
:102750001F781F780000000000000000000000004B
:1027600000000000F007FC1F3E3E1F7C0F780F7832
:102770000FF80FF80FF80FF80FF80FF80F780F7821
:102780001F7C3E3EFC1FF007000000000000000020
:102790000000000000000000FC3FFF3F1F3E0F3E16
:1027A0000F3E0F3E0F3E1F3E3F3EFC3FF03F003EC0
:1027B000003E003E003E003E003E003E00000000A5
:1027C000000000000000000000000000F007FC1FF7
:1027D0003E3E1F7C0F780F780FF80FF80FF80FF8B8
:1027E0000FF80FF80F780F781F7C3E3EFC1FF8079C
:1027F0007C003F000F00030000000000000000000C
:10280000F03FFC3F7E3C3E3C1E3C1E3C3E3C3C3C84
:10281000FC3CF03FE03FF03DF83C7C3C3E3C1E3C45
:102820001F3C0F3C00000000000000000000000002
:1028300000000000FC07FE1F0E3E003C003C003C78
:10284000003EC01FF80FFE037F001F000F000F00A7
:102850001F203E3CFC3FF01F000000000000000075
:102860000000000000000000FFFFFFFFE003E003A6
:10287000E003E003E003E003E003E003E003E00340
:10288000E003E003E003E003E003E00300000000F6
:102890000000000000000000000000000F7C0F7C22
:1028A0000F7C0F7C0F7C0F7C0F7C0F7C0F7C0F7CD0
:1028B0000F7C0F7C0F7C1E3C1E3C3E3EFC1FF00735
:1028C0000000000000000000000000000000000008
:1028D00007F007F007F80F780F7C1E3C1E3C1E3EE9
:1028E0003C1E3C1F781F780FF80FF007F007F00729
:1028F000E003E00300000000000000000000000012
:102900000000000003E003F003F007F0E7F3E7F353
:10291000E7F3E773F77BF77FFF7F7F7F7F7F7E7F24
:102920007E3F3E3E3E3E3E3E000000000000000076
:10293000000000000000000007F80F7C1E3E3E3E35
:102940003C1FF80FF007E007E003E003F007F80F83
:102950007C0F7C1E3E3C1F780F780FF000000000BB
:1029600000000000000000000000000007F80778E9
:102970000F7C1E3C1E3E3C1F780FF80FF007E00353
:10298000E003E003E003E003E003E003E003E0032F
:102990000000000000000000000000000000000037
:1029A000FF7FFF7F0F001F003E007C00F800F0005B
:1029B000E001E003C007800F000F001E003E007C16
:1029C000FF7FFF7F0000000000000000000000000B
:1029D000000004040400000800000008002A0008A9
:1029E0000000002010000000F4000008102A000879
:1029F00010000020B00700001001000800000000D7
:102A0000101A0000D21D000800127A000000000019
:04000005080000B13E
:00000001FF
