:020000040800F2
:10000000D00700206501000839150008990C000888
:1000100000000000000000000000000000000000E0
:10002000000000000000000000000000D1180008DF
:10003000000000000000000059170008FD1800082B
:100040007701000800000000770100087701000830
:1000500077010008770100087701000877010008A0
:100060000000000077010008770100087701000810
:100070007701000877010008770100080000000000
:100080007701000800000000000000007701000870
:1000900000000000770100087919000877010008C6
:1000A0000000000077010008000000007701000850
:1000B00000F002F800F046F80CA030C80838241808
:1000C0002D18671EA246AB4654465D46AC4201D190
:1000D00000F038F87E460F3EB6460FCC012633427C
:1000E00000D0FB1A3343A246AB461847442D00000C
:1000F000642D0000103A02D378C878C1FAD85207AC
:1001000001D330C830C101D504680C6070470000CD
:100110000023002400250026103A01D378C1FBD823
:10012000520700D330C100D50B60704710B5642969
:1001300002D100F077F810BD002010BD1FB51FBD23
:1001400010B510BD00F002FA1146FFF7F7FF01F0FD
:100150003FFD00F01AFA03B4FFF7F2FF03BC00F012
:100160001DFA00000748804707480047FEE7FEE702
:10017000FEE7FEE7FEE7FEE704480549054A064BB1
:100180007047000075190008B1000008D002002077
:10019000D0070020D0030020D00300200FB41CB5EE
:1001A0000C0007AA009001D00019401E084B7B44A8
:1001B00069460190069800F090F9002C03D069463A
:1001C000002000F09DF91CBC08BC04B018470000DA
:1001D0005903000070B5044685690068C10601D561
:1001E000302600E02026C00707D070BD6268304688
:1001F000A1689047206A401C20626D1EF6D570BD34
:1002000070B5044685690078C00707D170BD626883
:10021000A16820209047206A401C20626D1EF6D500
:1002200070BD0000F7B5002575291068009914A667
:1002300011D0C046C046002802DA404211A608E0AC
:10024000009909688A0701D50FA602E0490704D57D
:100250000EA6012501E0C046C046009F00242437B9
:1002600004E000F05AF930313955641C0028F8D107
:100270002B4632462146009800F0D2F8FEBD000021
:10028000000000002D0000002B00000020000000F6
:10029000F3B50446002081B020622046E16888471B
:1002A00000287DD0252802D06268A16883E0454FF0
:1002B00000257F442046E16888472028064608DB61
:1002C000312E06D2B81920380078002801D0054315
:1002D000F0E7A80701D5042085430020E061074628
:1002E000A0612A2E0AD0304601F085FF002827D0D1
:1002F000B8000019303E0090866119E00298BA00FB
:10030000121902C8916102902046E1688847012FC6
:10031000064617D1E06900281FDA202085431CE03B
:1003200000980A2180694843009980193038886113
:100330002046E1688847064601F05DFF0028EFD1BE
:10034000012F0AD02E2E08D12046E16888470646A4
:10035000202005437F1C022FC3DBA069002803DA9D
:100360004042A06101200543E80701D010208543E9
:10037000002E24D030464138192803D80120C0026D
:1003800005432036204625603146029A1546FFF780
:10039000CDFE00280CD0012807D0ED1DE80800E0B4
:1003A0000DE0C0000830029077E72D1D029574E73C
:1003B00062683046A1689047206A401C6CE7206A5A
:1003C000FEBD00004E1F0000D2B210B513029A18F5
:1003D00013049A1800F001F810BD01E004C0091FD1
:1003E0000429FBD28B0701D50280801CC90700D0ED
:1003F0000270704700290BD0C30702D00270401C66
:10040000491E022904D3830702D50280801C891E5D
:10041000E3E70022EEE70022DFE77047704770470E
:10042000FFB504460D4681B024300090216888064F
:1004300004D51022E0699143216000E00120A84228
:1004400001DD471B00E000270498A1697A19101804
:10045000081AA0612078C00602D42046FFF7BAFE31
:10046000002608E003986268A168805D9047206AD2
:10047000401C761C206204988642F3DB2078C0067C
:100480000AD52046FFF7A6FE06E06268A168302084
:100490009047206A401C206238467F1E0028F4DC0A
:1004A00007E000986268A168405D9047206A401CA0
:1004B000206228466D1E0028F3DC2046FFF7A0FED0
:1004C0002078000602D5022005B0F0BD0120FBE730
:1004D00001694A1C02610878704700B58FB002912B
:1004E0000021059105490193794403911146049037
:1004F0006846FFF7CDFE0FB000BD0000E5FFFFFF2F
:100500000A681070521C0A6070470CC908399A4278
:1005100002D2531C0B601070704701468008081A05
:1005200002091018020A1018020C1018C0088200E4
:1005300012185200891A01E0401C0A390A29FBD21C
:100540007047000000487047180000207546FFF70C
:10055000F9FFAE46050069465346C008C00085460F
:1005600018B020B5FFF708FE60BCB646002600278D
:10057000C0C5C0C5C0C5C0C5C0C5C0C5C0C5C0C553
:10058000403D490849008D46704710B50446C046B5
:10059000C0462046FFF7DFFD10BD000001491820CE
:1005A000ABBEFEE7260002007047EFF3108072B684
:1005B000FEE70000054800687047C0461A4800780A
:1005C00002490A68101808607047C046C802002037
:1005D00080B5A448016810220A430260032000F09D
:1005E00005F800F025F8002080BDC046B0B50446EF
:1005F0007D20C0000C49097801F002FD01469C48AD
:10060000006801F0FDFC00F043FB0125032C09D834
:10061000002807D10025E84321462A4600F01EF8AD
:10062000024804602846B0BD0C00002010000020E5
:1006300082B009480168012211430160016811403C
:1006400001910199110742680A43426040680840DD
:100650000090009802B070471810024080B501F079
:10066000B3F980BDF0B585B004468078C007394B3A
:100670004DD00120039001071A1F10680840029016
:1006800006D1106808431060106808400490049870
:1006900000920191304E3068C00511D403980702D2
:1006A000306838433060FFF785FF054630683842D0
:1006B00006D1FFF77FFF401B6428F7D9032538E0F8
:1006C00003252802234B1968014012D062680240BA
:1006D00091420ED00398000419681A6802431A6008
:1006E0001A6882431A6008461C4A10401860C807FE
:1006F00022D11868194908406168014319600298BD
:10070000002804D1009A106801998843106020687D
:10071000C10705D0196903229143A2680A431A61EF
:100720000025800605D5186910218843E16801433A
:100730001961284605B0F0BDFFF73CFF06464A4F59
:10074000044B18688007D4D4FFF734FF801BB842ED
:10075000F6D9EEE72010024000700040FFFCFFFFDA
:10076000F0B581B000284CD004463E4A1368012001
:1007700003408B4208D213680126B3430B43136036
:10078000126832408A426AD1009121688A070ED5E8
:100790004A0705D507221202434D2B6813432B60ED
:1007A000414D2A68F0239A43A36813432B60C9077D
:1007B00029D12C49086801263040009A904205D979
:1007C0000868B04308600868C00748D1207840072F
:1007D00007D507200002344A11688143E0680843C6
:1007E000106000F047F8304909680906090F1F4AF0
:1007F000515CC8401E4908600320FFF7F7FE002641
:100800002DE001262BE06168274A121F022906D03D
:10081000012909D112689203064620D508E0126822
:10082000920106461BD503E012689207064616D5CC
:100830001D4A10680326B04308431060FFF7BAFE54
:100840000746094D184800680C2101406068800087
:100850008142AED0FFF7AEFEC01BA842F2D93046AF
:1008600001B0F0BD002002408813000015220008EE
:100870000800002010B50C490A680C2313400B48EF
:10088000082B10D193021B0F09A4E45C896AD203E0
:1008900001D40F4805E00F22114009A2515C01F07C
:1008A000AFFB4443204610BD0410024000127A0002
:1008B00002030405060708090A0B0C0D0E0F1010A1
:1008C0000102030405060708090A0B0C0D0E0F10A0
:1008D00000093D00F0B587B004460120002C00D18E
:1008E000CDE104902078C007E64E05941CD07168D5
:1008F0000C200140042911D071680140082902D15F
:100900007068C0030AD46068002803903ED00528B0
:1009100000D121E1012839D1012022E13068800392
:1009200002D5606800282ED0207880074ED57068E8
:100930000007800F07D070680C21014008290ED1F4
:100940007068C0030BD430688007059A02D5D06860
:10095000012818D13068F8218843116933E03068E4
:10096000059CE16800291AD0012108433060FFF797
:1009700021FE05463068800721D4FFF71BFE401B8F
:100980000228F7D902E1049807B0F0BD0120010464
:1009900032688A433260810430688843E4E0012190
:1009A00088433060FFF706FE0546306880070DD5A6
:1009B000FFF700FE411B03200229F6D95FE13068F2
:1009C000F82188432169C90001433160059C2078E2
:1009D000000722D42078400732D42078C00600D403
:1009E000EBE0059A5069411D6DD0012874D1706B00
:1009F000042101437163706B012101437163FFF7AF
:100A0000D9FD0546706B800700D5CEE0FFF7D2FD1B
:100A1000411B03200229F5D931E1706AE1690029FF
:100A200042D0012108437062FFF7C4FD0546706A99
:100A30008007CFD4FFF7BEFD401B0228F7D9A5E001
:100A4000012003900107F0690840029006D1F06987
:100A50000843F061F06908400690069801918A4FBA
:100A60003868C00510D40398040238682043386001
:100A7000FFF7A0FD05463868204205D1FFF79AFD33
:100A8000401B6428F7D981E005988468002C03D0C6
:100A9000052C36D0012C38D0306A03998843306257
:100AA000306A0421884333E0012188437062FFF7F4
:100AB00081FD0546706A80078CD5FFF77BFD401BE2
:100AC0000228F7D962E0706B042188437063706B71
:100AD000F821884391696DE0706B042101437163D3
:100AE000706B012188437063FFF764FD0546706BEE
:100AF000800762D5FFF75EFD411B03200229F6D96E
:100B0000BDE0306A042101433162306A0399084331
:100B100030625E4FFFF74EFD0546002C0FD0306A65
:100B200080070FD4FFF746FD401BB842F7D92DE0F0
:100B3000FFF740FD411B0320B94200D99FE0306A16
:100B40008007F5D402980028059C00D045E7F0699D
:100B500001998843F06140E70120810432680A432B
:100B60003260010430680843306001204704FFF719
:100B700021FD0546039800280BD03068384200D08C
:100B8000D2E6FFF717FD401B6428F6D9032007B013
:100B9000F0BD059C3068384200D1C5E6FFF70AFD7C
:100BA000411B03206429F5D969E0706BF821884363
:100BB00005998969C900014371630598046A002C8D
:100BC0001AD070680C210140082918D1012C049812
:100BD00055D00120030471680B40F26A059D6C6AD0
:100BE000A3424CD10F231A40EC6AA24247D19A0487
:100BF0001140AA6A914242D1002007B0F0BD012005
:100C0000020631680492914331604706FFF7D2FC37
:100C10000546022C0AD1049C3068384210D0FFF7F8
:100C2000C9FC411B03200229F6D928E0306838426C
:100C3000E2D0FFF7BFFC411B03200229F6D91EE0DA
:100C4000F06A0F218843059AD16A0143F1623D2081
:100C5000000471688143906A0843516A01437160DE
:100C6000306820433060FFF7A5FC04463068384206
:100C7000C2D1FFF79FFC011B03200229F6D907B060
:100C8000F0BDC04600100240007000408813000014
:100C900080B500F01FFE80BDFEE7000081B0134963
:100CA0000A6802430A60096801400091009801B097
:100CB0007047C04681B0012040040C490A680243D5
:100CC0000A60096801400091009801B07047C04671
:100CD00081B00120400405490A6802430A6009689E
:100CE00001400091009801B07047C04614100240C6
:100CF00081B0012040050B490A6802430A60096877
:100D000001400091009801B07047C04681B005498C
:100D10000A6802430A60096801400091009801B026
:100D20007047C0461C10024081B005490A68024362
:100D30000A60096801400091009801B07047C04600
:100D400018100240F0B581B00D460446096800292C
:100D50002DD0002709E06A692046314600F04AF8A4
:100D60007F1C29680846F84021D00126BE400E406D
:100D7000F6D06A682046314600F04EF86868401E9A
:100D8000012804D8AA682046314600F05DF82A6997
:100D90002046314600F04FF868680228E0D1FF2E67
:100DA000D9D86A692046314600F01AF8D8E7686851
:100DB000401E012803D8EA68204600F036F80020DB
:100DC00001B0F0BD00690840411A484248417047EF
:100DD0000148022101607047280400488162704781
:100DE000494349434A430F234B43016A9943114303
:100DF00001627047090A494349434A430F234B4361
:100E0000416A994311434162704700000148022141
:100E1000016070471804004849434A4303234B4389
:100E2000016899431143016070474A4343688B430B
:100E300013434360704749434A4303234B43C1680C
:100E400099431143C160704749434A4303234B43CD
:100E5000816899431143816070470122D20343683E
:100E600093430B43436070470248016820220A43C2
:100E7000026070471C54004010B51F231B02046819
:100E80009C4312020A432243026010BD0168012202
:100E900091430160704700000120C00414490A68B2
:100EA00082430A607047C0460121C90382688A43B1
:100EB000826070470120C00345490A6882430A6086
:100EC0007047C046016801220A4302607047000073
:100ED0000120400614490A6802430A607047C04670
:100EE0000120400402490A6882430A607047C046F4
:100EF000005400400121C90382680A4382607047A0
:100F00000120800308490A6802430A607047C0460E
:100F100070B5054C2568054E2E4009040143114368
:100F200019433143216070BD04540040008000FC2F
:100F3000B0B50D460446FFF7A9FFA968EA68204648
:100F4000FFF79AFF6968204600F046F82046FFF751
:100F5000B9FF2046FFF7A8FFAA692969204600F0DB
:100F600027F82869002802D02046FFF7C3FF296828
:100F7000204600F015F869692046FFF76EFF002053
:100F8000B0BD000005480168012008407047C04618
:100F9000024800688007C00F7047C04618540040E0
:100FA00003221205036893430B430360704700005C
:100FB00011438268024B13400B4383607047C04665
:100FC00000F8FFFF02480168024A0A4002607047C9
:100FD0000C54004001F8FFFF0161704701490860AF
:100FE0007047C046285400400248016801229143DE
:100FF0000160704720200040026A0A430262704785
:101000000121C94301617047016880229143016059
:101010007047016801229143016070479948016857
:101020008022914301607047016801220A430260F7
:10103000704700000248016801220A4302607047BD
:101040000C480140416901220A4342617047000097
:10105000014800687047C0462404004010B50128CC
:1010600005D0042805D0102805D1022004E0002076
:1010700002E0012000E006202E49095C03228A409C
:101080002D4B185C2D4BC458944301228A402243B7
:10109000C25010BDB0B5012805D0042805D01028D5
:1010A00005D1022004E0002002E0012000E006203B
:1010B000204A125CF02393401F4C205C1F4C0559C2
:1010C0009D43090C914029430151B0BD012805D031
:1010D000042805D0102805D1022004E0002002E0F9
:1010E000012000E0062004A1085C0A218140044898
:1010F00002688A430260704700020406080A0C0076
:1011000020040040012805D0042805D0102805D16E
:10111000022004E0002002E0012000E00620054952
:10112000095C0C228A400449085C044943589343F3
:1011300043507047292E0008222E00081804004052
:1011400070B50D46044601681F4EB04202D0F94802
:10115000844204D1702081436868084300E0084657
:101160001A498C4208DDB4420CD019498C4209D08E
:1011700018498C4206D024E0EE498C4202D0BC498A
:101180008C421ED1032109028843E9680143216092
:10119000A968204600F06AF82988204600F074F813
:1011A000B44205D00A48844202D00A48844203D19E
:1011B000297C204600F06AF82046FFF743FF002014
:1011C00070BD0146E3E7C046002C0140FF2B014003
:1011D0000048014000440140016901200840704777
:1011E0000548016804229143016070470248016884
:1011F00008220A430260704718200040B0B5034639
:101200000120FF2909DC012914D010291DD118461D
:10121000114600F0D1F90020B0BD01242502A942F9
:101220000ED02403A14210D11846114600F056FA00
:101230000020B0BD1846114600F080F90020B0BD76
:101240001846114600F000FA0020B0BD01490860C0
:101250007047C04634200040416370478163704747
:10126000C163704701647047C1627047C1627047D3
:10127000416270470348016801220A4306218A43FC
:101280000260704708040040816270470163704744
:1012900002480168702291430160704704040040D5
:1012A000F0B589B000270897079706970597049728
:1012B00003970125A805FFF7F1FC6804FFF7EEFC92
:1012C000A804FFF7EBFC0920C00602902021019141
:1012D000FFF784FD144802263146FFF77FFD07958E
:1012E00004970395114803AC2146FFF72BFD0796A1
:1012F00004970820039002982146FFF723FD0796E4
:101300000697059704950198039002982146FFF7E8
:1013100019FD0796069705970495039602482146FE
:10132000FFF710FD09B0F0BD0004004800140048AC
:10133000F0B591B0002610960F960E960D960C966D
:101340000B960A96099608960796069605960496B1
:10135000FFF7B0FC0420039009900896012407943D
:1013600003200290069002200190059067020497E6
:101370000920C006009004AD2946FFF7E3FC03985E
:101380000990089607940298069001980590A0028B
:10139000049000982946FFF7D5FCFFF7A9FCFFF75A
:1013A00089FDFFF779FDFFF79BFD0C960B370B9737
:1013B0000A960D960E960F96109605480AA9FFF705
:1013C000B7FDFFF785FDFFF7FDFD11B0F0BDC0468D
:1013D00000540040F0B593B0002712971197109772
:1013E0000F970E970D970C970B970A9709970897E9
:1013F0000797069705970497039702970197009719
:10140000012425022846FFF781FC0EA92F20088021
:101410001197164810900F97154E3046FFF790FE23
:101420003046FFF7F1FDFFF7E1FE0A97F335099526
:10143000089707976020069006AA30462146FFF7D6
:10144000DDFEFFF7CDFEFFF743FC042005900220F0
:101450000490039702970190102000900920C00685
:101460006946FFF76FFC13B0F0BDC046E70300000C
:1014700000200040F0B58DB000260C960B960A9621
:101480000996089607960696059604960396029680
:1014900002252846FFF73AFCFFF71AFC01240794BF
:1014A0000695059604960395402002900920C006F3
:1014B000019002AF3946FFF745FC07940695059663
:1014C000049603958020029001983946FFF73AFC74
:1014D000FFF7D0FE2046FFF7C1FD2046FFF712FEC2
:1014E00021052046FFF7D6FD2046FFF7EFFD10252A
:1014F0002846FFF7B3FD2846FFF704FE610528469E
:10150000FFF7C8FD2846FFF7E1FD08A90E800B96FE
:1015100007480A900996074C2046FFF711FE20461F
:10152000FFF772FDFFF7B4FEFFF778FD0DB0F0BDD9
:10153000FFFF000000040040FEE70000F0B583B0AC
:1015400004460126F043226A024022620A690240F0
:10155000236A0327BB431343086802904D681D4369
:101560006368A2697948844205D07948844202D0F0
:101570007848844213D13802834370024E69019641
:101580008F69CE6987431F4373003B430C2085431B
:1015900001984008C00028438D68AD000543636092
:1015A0007320824302980243A261C9682046FFF774
:1015B00053FE256203B0F0BDF0B583B00446006A67
:1015C000102290432062206A302290430A69520818
:1015D000520102430F684B681D0115436368A269FD
:1015E0005A4EB44205D0ED4EB44202D0594EB442E8
:1015F00019D10326B602B343486902903E468F696B
:10160000C8690190BF000F48384037461843019B16
:10161000DB000343C020854302984008C0012843F3
:101620008D68AD0105436360732000028243380278
:101630001043A061C9682046FFF710FE256203B081
:10164000F0BDC046FCF7FFFFF0B585B00446214869
:10165000FF30226A02402262032003900002226AC5
:1016600082430869400843021343086804904A68AB
:1016700015021D436368E269344FBC4205D0C74F71
:10168000BC4202D0334FBC4217D103980703BB437F
:101690004E6902968E69CF69019737010E4E3E4022
:1016A0001E43019B5B01334380028543029840083F
:1016B000C00228438D68AD020543636073208243F6
:1016C00004980243E261C9682046FFF7C9FD25621C
:1016D00005B0F0BD00FEFFFFF0DFFFFFF0B583B007
:1016E000044601263003226A82432262256A636827
:1016F00005C902928A680192E269144F0839BC4216
:1017000005D0A64FBC4202D0F04FBC4205D1B60373
:10171000B3438E69B6011E4300E01E466660732324
:101720001B029A4300021043E061C9682046FFF79C
:1017300099FD032000038543019840084003284396
:10174000029909030143216203B0F0BD002C01405E
:1017500000480140004401407047000010B5832854
:1017600018D81F2916D853425341134C2478002C03
:1017700000D01A4607240C400123A340C908842442
:101780004C43201851490C5C012A01D09C4300E0D5
:101790001C430C5410BDC04680B5074909784A1E49
:1017A0009141814201D1002200E0FF22212001016C
:1017B0004648FEF709FE80BD8C000020294A1180B2
:1017C000274908807047C046F0B585B003462448D5
:1017D00000880C7824180020832C3ED8214C2588C2
:1017E0000F46497849191F2937D803920193787811
:1017F00000282CD003994B424B4104930199203986
:101800000291002603E07878761C86421FD2397850
:101810000029F8D0029948438019400079680C5A91
:1018200000250DE00E480088401980B20D49098856
:10183000891989B2FFF792FF6D1C38788542E2D290
:101840002046A8400004049AECD5039AEAE73878C9
:10185000034A118808181080019805B0F0BDC046F1
:10186000880000208A000020F0B581B0064600788C
:10187000002700280FD014460D46C0B22946224644
:10188000FFF7A2FF01463078814205D1711C7078C4
:1018900000280E46F1D1384601B0F0BDB0B50B4876
:1018A000041F002528465038C0B200F037FB002046
:1018B00000F034FB102000F031FB8421204600F0C2
:1018C00039FB84346D1C042DECD1B0BD9000002098
:1018D00070470000B0B5401E010E01D00120B0BD20
:1018E000054D68600024E043032100F06DF8AC6012
:1018F000072028602046B0BD10E000E080B5FEF76C
:101900005DFE80BD70B594B008AC30212046FEF776
:1019100082FD0025079506950595049513950520EC
:10192000C004129011950226109610200C900120F0
:101930000B90089603950295019500952046FEF7B9
:10194000C9FF002814D10795069505960720049035
:1019500004A80121FEF704FF002809D103952020E7
:1019600000906846FEF77EFE002801D114B070BDDD
:10197000FEF71BFE7047000010B5D54C2046FFF760
:101980002BFC012808D12046FFF73AFB2046FFF741
:1019900040FB03480121017010BDC04600480140D2
:1019A000B002002001208005014908607047C04650
:1019B00000E100E0FF20000402490A6882430A6057
:1019C0007047C04614E400E0002805D40322034613
:1019D00093430C4A9A1806E00F220240083A032368
:1019E0009A43074BD2188007C00E8901C9B28140C3
:1019F000FF23834010689843084310607047C04637
:101A00001CED00E000E400E010B504467D20C102BA
:101A100020894843044900F0F3FA01466060034816
:101A200000F0EEFA208010BD7017000040420F0059
:101A300070B582B00C46054600200121FFF7BEFEBE
:101A40002D89632D06D80F48102111A22B46FEF7D1
:101A5000A5FB0DE064262846314600F0D1FA034686
:101A60004643A81B00900748102107A2FEF796FBEB
:101A7000044801222146FFF7F7FEFFF70FFF02B0EF
:101A800070BDC0467800002025642E2530326400E9
:101A9000302E25303264000010B501460B4C204634
:101AA000FFF7E2FB2046FFF7ABFA00212046FFF7E5
:101AB000DFFB2046FFF7B8FA2046FFF78DFB002832
:101AC000FAD02046FFF7A5FA10BDC04600440140F9
:101AD000B0B505460F4C2046FFF79BFA2888400812
:101AE000FFF7B4FB29882046FFF7BEFB0021204604
:101AF000FFF7BEFB01212046FFF77EFA2046FFF7E5
:101B000093FAB0BD80B50348FFF783FAFFF76CFA8C
:101B100080BDC0460020004010B5084C62492046F8
:101B2000FFF7A6FB01212046FFF766FA10212046A9
:101B3000FFF762FA2046FFF777FA10BD0004004075
:101B4000F0B581B01C4615460F46591C00261F4BA8
:101B50003246FFF7DDF9FFF71BFA0028FBD03846C5
:101B6000FFF73CFAFFF70EFA0028FBD0002C09D053
:101B7000A85DFFF733FAFFF705FA0028FBD0761CC3
:101B8000A642F5D1FFF7BCF9FFF76EF901B0F0BD41
:101B900070B514460D46511C00260C4B3246FFF71B
:101BA000B7F9FFF7EFF90028FBD0002C09D0A85DAA
:101BB000FFF714FAFFF7E6F90028FBD0761CA642DF
:101BC000F5D1FFF79DF9FFF74FF970BD00200080B8
:101BD000FEF7FEFCFFF796FEFFF762FBFFF7A8FBA0
:101BE000FFF748FCFFF7F6FB00F0F6F900F038F9D4
:101BF0007D20C000FFF750FF124C0A20208197493A
:101C00002046FFF715FF2046FFF7FEFE00F08AF89A
:101C1000022809D00C4C0B4D2046294600F00CF947
:101C200000F080F80228F7D1064C074D204600F05E
:101C3000DBF92846214600F0FFF80128F9D100F031
:101C4000D9F9F3E7B4020020A4020020B0B50C4695
:101C50000546FFF7FDF9401E80B21349081AC10F6F
:101C60004018411069602A6800208A4218D0296013
:101C7000891A15D00A461332262A11D8052048435E
:101C800022891018208180B2092803D80A202081D7
:101C90000846B0BDE1229200904202D92281084656
:101CA000B0BD0846B0BDC046FF7F000010B5410082
:101CB000C84C2046FFF7D8FA00212046FFF7D8FA93
:101CC0002046FFF79DF92046FFF7AEF910BDC0464C
:101CD00000480140B0B5401E534C03280ED8C04602
:101CE0007844007940008744010104040121204622
:101CF00002E00920C0060821FFF764F8012520460C
:101D00002946FFF75FF8002801D02846B0BD09201A
:101D1000C0060821FFF756F80546401E85412846B3
:101D2000B0BDC046F0B581B03E4D2878002816D130
:101D30000920C0060821FFF745F8012805D1012038
:101D400028703A480321018009E0374801242146E0
:101D5000FFF738F8012802D12C7034480480287825
:101D6000012804D13220FFF7A1FF02202870304E55
:101D700030782978022910D101280ED1002434703E
:101D80002A480088FFF7A6FF002831D06420FFF71B
:101D90008DFF2848047003202870307829780329A3
:101DA00012D1012810D100273770204C2088FFF76E
:101DB00091FF00281ED01F48017804291DD8491C16
:101DC00001706420FFF772FF30782978002404291D
:101DD00025D1012823D115480024048034700088BF
:101DE000FFF778FF00280FD06420FFF75FFF16E0B1
:101DF0002C7014E02F70248811E02088032806D06E
:101E0000012806D1022003E000242C7007E0042002
:101E10002080042028706420FFF748FF2488204693
:101E200001B0F0BDC202002000140048C002002032
:101E3000B0020020A002002010B50C46FFF706FFFC
:101E4000002808D02046FFF7DFFD04492046FFF7B1
:101E5000EFFD012010BD002010BDC0460000002095
:101E600010B5AE2000F05AF8202000F057F80024FA
:101E7000204600F053F8B02000F050F8C82000F0E1
:101E80004DF8204600F04AF8102000F047F84020B6
:101E900000F044F8812000F041F8FF2000F03EF807
:101EA000A12000F03BF8A62000F038F8A82000F0B0
:101EB00035F81F2000F032F8A42000F02FF8D320CE
:101EC00000F02CF8204600F029F8D52000F026F884
:101ED000F02000F023F8D92000F020F8222000F0B4
:101EE0001DF8DA2000F01AF8122000F017F8DB20B5
:101EF00000F014F8022000F011F8AF2000F00EF806
:101F00002046FFF749FCFFF7C9FC0248048002485D
:101F1000048010BD8A0000208800002080B504499C
:101F200048700020087078200222FFF731FE80BD43
:101F3000C302002080B50246CBB278204021FFF7D3
:101F4000FFFD80BD10B586B0002405940494039471
:101F50000294019401204004FEF7E6FE01A92F201F
:101F600008800494FF2003900294044C2046FFF75D
:101F7000E7F82046FFF748F806B010BD00440140DE
:101F800010B586B00024059404940394029401943F
:101F900001208004FEF7C8FE01A90C740B480880DC
:101FA00004940B48039002940A4C2046FFF7C8F8AB
:101FB0002046FFF729F82046FFF722F8FFF73AF806
:101FC000FFF7F8FCFFF7EEFC06B010BDBF5D0000A8
:101FD000FFFF00000048014080B5FFF79DFDFFF7BF
:101FE000B1FFFFF7CDFF80BD80B5FFF771FDFEF7B4
:101FF000EFFE80BD80B5FEF709FFFFF783FD80BDD2
:1020000043088B421AD3002203098B4279D3030A77
:102010008B425ED3030B8B4242D3030C8B4227D3FC
:102020000902FF2212BA030C8B4202D312120902D8
:1020300003D0030B8B4233D31AE0D3E0411A804123
:10204000401C704703460B4371D443088B42F5D3C1
:10205000002203098B4254D3030A8B4239D3030B6A
:102060008B421DD3030C8B4202D394466EE0090AC7
:10207000C30B8B4201D3CB03C01A5241830B8B425B
:1020800001D38B03C01A5241430B8B4201D34B0344
:10209000C01A5241030B8B4201D30B03C01A5241A9
:1020A000C30A8B4201D3CB02C01A5241830A8B422E
:1020B00001D38B02C01A5241430A8B4201D34B0217
:1020C000C01A5241030A8B4201D30B02C01A52417B
:1020D000CDD2C3098B4201D3CB01C01A524183092F
:1020E0008B4201D38B01C01A524143098B4201D369
:1020F0004B01C01A524103098B4201D30B01C01A94
:102100005241C3088B4201D3CB00C01A524183080D
:102110008B4201D38B00C01A524143088B4201D33A
:102120004B00C01A5241411A524110007047CA0F69
:1021300000D04942031000D34042534000229C4645
:1021400003098B422DD3030A8B4212D38901FC224F
:1021500012BA030A8B420CD3890192118B4208D325
:10216000890192118B4204D3890137D0921100E08A
:102170008909C3098B4201D3CB01C01A524183099B
:102180008B4201D38B01C01A524143098B4201D3C8
:102190004B01C01A524103098B4201D30B01C01AF3
:1021A0005241C3088B4201D3CB00C01A524183086D
:1021B0008B4201D38B00C01A5241D9D243088B42C3
:1021C00001D34B00C01A5241411A00D2014652417C
:1021D000104663465B1000D34042704763465B1075
:1021E00000D3404201B50021004201D0C943084656
:1021F000C046C04602BD30380A2801D201207047CF
:1022000000207047040000080000000000000002E9
:1022100000010000100000000000000000010203A7
:10222000040607080900000000000000000000008C
:10223000000000000000000000000000000000009E
:10224000000000000000000000000000000000008E
:1022500000000000000000000000E003E003E003D5
:10226000E003E003E003E003E003C003C003C001B8
:10227000C001C001C001C001000000000000E00377
:10228000E003E003000000000000000000003C1E2E
:102290003C1E3C1E3C1E3C1E3C1E3C1E0000000022
:1022A000000000000000000000000000000000002E
:1022B000000000000000000000000000000000001E
:1022C0000000CE01CE03DE039E039C039C07FF3F6C
:1022D000FF7F3807380F780F780F780EFFFFFFFF6A
:1022E000F01EF01CE01CE03CE03DE0390000000086
:1022F000000000000000FC03FE0FEE1FE01EE01EC9
:10230000E01EE01EE01FE00FE007F003FC01FE010D
:10231000FE01FE01FE01FE01FE01FE3DFC3FF00F4D
:10232000E001E001000000000000033E07F78FE736
:102330008EE79EE3BCE3B8E7F8E7F0F7E03FC001C3
:10234000FF03FF07F307F30FF31EF33CF338F378B3
:102350007FF03FE000000000000000000000E00708
:10236000F80F780F781F781F781F780FF00FE00FA5
:10237000801FC37FC3FBE7F3F7F1F7F0FFF07FF0B7
:102380003EF87F7CFF3FEF1F0000000000000000D0
:102390000000E003E003E003C003C003C001C0008D
:1023A000C00000000000000000000000000000006D
:1023B000000000000000000000000000000000001D
:1023C0000000000000003F007C00F001E001C003BD
:1023D000C00780078007800F000F000F000F000F5D
:1023E000000F000F800F80078007C007C003E001C7
:1023F000F0017C003F000F000000007E001FC007BE
:10240000C003E001F001F000F000F800780078006F
:102410007800780078007800F800F000F000F00113
:10242000E001C003C007001F007E00780000C0016B
:10243000E003180C180C180C180CE003C001000085
:10244000000000000000000000000000000000008C
:10245000000000000000000000000000000000007C
:102460000000000000000000000000000000C001AB
:10247000C001C001C001C001C001C001FFFFFFFFDA
:10248000C001C001C001C001C001C00100000000C6
:10249000000000000000000000000000000000003C
:1024A000000000000000000000000000000000002C
:1024B0000000000000000000E003E003E003E00390
:1024C000E001E001E001C001800300000000000025
:1024D00000000000000000000000000000000000FC
:1024E000FE3FFE3F00000000000000000000000072
:1024F00000000000000000000000000000000000DC
:1025000000000000000000000000000000000000CB
:1025100000000000000000000000000000000000BB
:10252000E003E003E003E00300000000000000001F
:1025300000000F000F001E001E003C003C00780051
:102540007800F000F000E001E001C003C003800764
:102550008007000F000F001E001E003C003C0078AA
:10256000007800F00000F007F80F7C1F3E3E1E3C94
:102570001F7C1F7C0F780F780F780F780F780F78FB
:102580000F781F7C1F7C1E3C3E3E7C1FF80FF0071F
:1025900000000000000000000000F000F007F03F25
:1025A000F03FF001F001F001F001F001F001F00165
:1025B000F001F001F001F001F001F001F001F00193
:1025C000FF3FFF3F00000000000000000000E00FA0
:1025D000F83F7C3C3C003E003E003E003C003C009E
:1025E0007C00F800F001E003C0078007000F001E28
:1025F000003E003CFE3FFE3F0000000000000000E7
:102600000000F00FF81F7C1C3E003E003E003C0026
:102610003C00F800F00FF80F7C003E001E001E008A
:102620001E001E003E007C1CF81FE01F0000000082
:102630000000000000007800F800F800F801F8033E
:10264000F807F807780F781E781E783C7878787845
:10265000FFFFFFFF780078007800780078007800AE
:1026600000000000000000000000FC1FFC1FFC1F19
:10267000001E001E001E001E001EE01FF81FFC00B2
:102680007C003E003E001E003E003E003C007C1CE4
:10269000F81FE01F00000000000000000000FC0127
:1026A000FE078E0F001F001E003E003C003CF83D60
:1026B000FC3F3E7F1F7E0F3C0F3C0F3C0F3C0F3E0C
:1026C0001F1E3E1FFC0FF003000000000000000072
:1026D0000000FF3FFF3FFF3F0F001E001E003C00B9
:1026E00038007800F000F000E001E001C003C00312
:1026F0008007800F800F000F001F001F00000000E8
:10270000000000000000F807FC0F3E1F1E1E1E3ECA
:102710001E3E1E1E3C1FF80FF007F80FFC1E3E3E2B
:102720001F3C1F7C0F7C0F7C1F3C3E3FFC1FF007B3
:1027300000000000000000000000F007F80F7C1E01
:102740003E3C1E3C1F7C1F7C1F7C1F7C1F3C3F3E71
:10275000FF1FEF071F001E001E003E003C00F83860
:10276000F03FE01F0000000000000000000000003B
:1027700000000000000000000000E003E003E003B0
:10278000E003000000000000000000000000000066
:10279000E003E003E003E0030000000000000000AD
:1027A0000000000000000000000000000000E00346
:1027B000E003E003E0030000000000000000000070
:1027C00000000000E003E003E003E003E001E001BB
:1027D000E001C003800300000000000000000000D2
:1027E000000003000F003F00FC00F003C00F003F9B
:1027F00000FE003FC00FF003FC003F000F0003008D
:1028000000000000000000000000000000000000C8
:102810000000000000000000000000000000FFFFBA
:10282000FFFF000000000000FFFFFFFF00000000AE
:102830000000000000000000000000000000000098
:102840000000000000000000000000E000F8007E32
:10285000801FE007F8017E001F007E00F801E007FE
:10286000801F007E00F800E0000000000000000073
:102870000000F01FFC3F3E381F381F381E001E00AE
:102880003C007800F000E001C003C003C007C007AF
:10289000000000000000C007C007C00700000000E3
:1028A000000000000000F803FE0F1E1F0F3E7F3CDB
:1028B000FF78EF79C773C7F38FF38FF38FF39FF32D
:1028C0009FF3FF73FF7BF779003C1C1FFC0FF8039D
:1028D00000000000000000000000000000000000F8
:1028E000E003E003F007F007F007780F780F7C0EA5
:1028F0003C1E3C1E3E3CFE3FFF3F1F780F780FF012
:1029000007F007F0000000000000000000000000D9
:1029100000000000F83FFC3F3E3C1E3C1E3C1E3CBD
:102920003E3C7C3CF03FF83F7E3C1F3C1F3C0F3C54
:102930000F3C1F3CFE3FF83F00000000000000007D
:102940000000000000000000FF01FF07871F003E9D
:10295000003C007C00780078007800780078007CEB
:10296000007C003E003F831FFF07FF0100000000C6
:10297000000000000000000000000000F07FFC7F6D
:102980007E781F781F780F780F780F780F780F7880
:102990000F780F780F781F781E787E78F87FE07FA9
:1029A0000000000000000000000000000000000027
:1029B000FF3FFF3F003E003E003E003E003E003E27
:1029C000FE3FFE3F003E003E003E003E003E003E19
:1029D000FF3FFF3F0000000000000000000000007B
:1029E00000000000FF1FFF1F001E001E001E001E33
:1029F000001E001EFF1FFF1F001E001E001E001EE7
:102A0000001E001E001E001E00000000000000004E
:102A10000000000000000000FE03FF0F871F003EC3
:102A2000007C007C007800F800F87FF87FF80F78D1
:102A30000F7C0F7C0F3E8F1FFF0FFE030000000076
:102A40000000000000000000000000001F7C1F7C50
:102A50001F7C1F7C1F7C1F7C1F7C1F7CFF7FFF7FD8
:102A60001F7C1F7C1F7C1F7C1F7C1F7C1F7C1F7C8E
:102A70000000000000000000000000000000000056
:102A8000FF3FFF3FE003E003E003E003E003E00378
:102A9000E003E003E003E003E003E003E003E0031E
:102AA000FF3FFF3F000000000000000000000000AA
:102AB00000000000FC1FFC1F7C007C007C007C00F0
:102AC0007C007C007C007C007C007C007C0078002A
:102AD0007800F838F03FC03F000000000000000020
:102AE00000000000000000001F3C1E3C3C3C783C05
:102AF000F03CE03DE03FC03F803FC03FE03FF03D65
:102B0000F03C783C7C3C3E3C1F3C0F3C000000000D
:102B1000000000000000000000000000003E003E39
:102B2000003E003E003E003E003E003E003E003EB5
:102B3000003E003E003E003E003E003EFF3FFF3FA5
:102B40000000000000000000000000000000000085
:102B50001FF81FFC1FFC3FFE3FFE3FFE7FFF77FF7D
:102B600077FFF7F7E7F7E7F3E7F3C7F307F007F0C7
:102B700007F007F000000000000000000000000067
:102B8000000000000F7C0F7C0F7E0F7F0F7F8F7F78
:102B90008F7FCF7FEF7BEF79FF79FF78FF787F78AA
:102BA0003F783F781F781F78000000000000000089
:102BB0000000000000000000F007FC1F3E3E1F7CEC
:102BC0000F780F780FF80FF80FF80FF80FF80FF8CD
:102BD0000F780F781F7C3E3EFC1FF00700000000BE
:102BE000000000000000000000000000FC3FFF3F6C
:102BF0001F3E0F3E0F3E0F3E0F3E1F3E3F3EFC3F2F
:102C0000F03F003E003E003E003E003E003E003EE3
:102C100000000000000000000000000000000000B4
:102C2000F007FC1F3E3E1F7C0F780F780FF80FF85F
:102C30000FF80FF80FF80FF80F780F781F7C3E3E53
:102C4000FC1FF8077C003F000F000300000000009D
:102C500000000000F03FFC3F7E3C3E3C1E3C1E3C22
:102C60003E3C3C3CFC3CF03FE03FF03DF83C7C3CD3
:102C70003E3C1E3C1F3C0F3C0000000000000000DA
:102C80000000000000000000FC07FE1F0E3E003C9C
:102C9000003C003C003EC01FF80FFE037F001F00F9
:102CA0000F000F001F203E3CFC3FF01F0000000003
:102CB000000000000000000000000000FFFFFFFF18
:102CC000E003E003E003E003E003E003E003E003EC
:102CD000E003E003E003E003E003E003E003E003DC
:102CE00000000000000000000000000000000000E4
:102CF0000F7C0F7C0F7C0F7C0F7C0F7C0F7C0F7C7C
:102D00000F7C0F7C0F7C0F7C0F7C1E3C1E3C3E3EDC
:102D1000FC1FF007000000000000000000000000A1
:102D20000000000007F007F007F80F780F7C1E3C4A
:102D30001E3C1E3E3C1E3C1F781F780FF80FF0070C
:102D4000F007F007E003E0030000000000000000CF
:102D5000000000000000000003E003F003F007F0B3
:102D6000E7F3E7F3E7F3E773F77BF77FFF7F7F7F17
:102D70007F7F7E7F7E3F3E3E3E3E3E3E0000000027
:102D800000000000000000000000000007F80F7CB9
:102D90001E3E3E3E3C1FF80FF007E007E003E00355
:102DA000F007F80F7C0F7C1E3E3C1F780F780FF069
:102DB0000000000000000000000000000000000013
:102DC00007F807780F7C1E3C1E3E3C1F780FF80F5B
:102DD000F007E003E003E003E003E003E003E003C7
:102DE000E003E0030000000000000000000000001D
:102DF00000000000FF7FFF7F0F001F003E007C00EF
:102E0000F800F000E001E003C007800F000F001E93
:102E1000003E007CFF7FFF7F0000000000000000FC
:102E20000000000000000404040000080000000886
:102E3000502E00080000002018000000F4000008D8
:102E4000682E000818000020B807000010010008D4
:102E5000101A00002622000800127A00010000006B
:082E6000040000000000000066
:04000005080000B13E
:00000001FF
